{
  "abi": [
    {
      "type": "constructor",
      "inputs": [
        {
          "name": "_token",
          "type": "address",
          "internalType": "address"
        }
      ],
      "stateMutability": "nonpayable"
    },
    {
      "type": "function",
      "name": "batchClaimTokens",
      "inputs": [
        {
          "name": "claimants",
          "type": "address[]",
          "internalType": "address[]"
        },
        {
          "name": "amounts",
          "type": "uint256[]",
          "internalType": "uint256[]"
        },
        {
          "name": "merkleProofs",
          "type": "bytes32[][]",
          "internalType": "bytes32[][]"
        }
      ],
      "outputs": [],
      "stateMutability": "nonpayable"
    },
    {
      "type": "function",
      "name": "claimTokens",
      "inputs": [
        {
          "name": "claimant",
          "type": "address",
          "internalType": "address"
        },
        {
          "name": "amount",
          "type": "uint256",
          "internalType": "uint256"
        },
        {
          "name": "merkleProof",
          "type": "bytes32[]",
          "internalType": "bytes32[]"
        }
      ],
      "outputs": [],
      "stateMutability": "nonpayable"
    },
    {
      "type": "function",
      "name": "fundAirdrop",
      "inputs": [
        {
          "name": "amount",
          "type": "uint256",
          "internalType": "uint256"
        }
      ],
      "outputs": [],
      "stateMutability": "nonpayable"
    },
    {
      "type": "function",
      "name": "hasClaimed",
      "inputs": [
        {
          "name": "",
          "type": "address",
          "internalType": "address"
        }
      ],
      "outputs": [
        {
          "name": "",
          "type": "bool",
          "internalType": "bool"
        }
      ],
      "stateMutability": "view"
    },
    {
      "type": "function",
      "name": "hasUserClaimed",
      "inputs": [
        {
          "name": "user",
          "type": "address",
          "internalType": "address"
        }
      ],
      "outputs": [
        {
          "name": "",
          "type": "bool",
          "internalType": "bool"
        }
      ],
      "stateMutability": "view"
    },
    {
      "type": "function",
      "name": "ipfsHash",
      "inputs": [],
      "outputs": [
        {
          "name": "",
          "type": "string",
          "internalType": "string"
        }
      ],
      "stateMutability": "view"
    },
    {
      "type": "function",
      "name": "merkleRoot",
      "inputs": [],
      "outputs": [
        {
          "name": "",
          "type": "bytes32",
          "internalType": "bytes32"
        }
      ],
      "stateMutability": "view"
    },
    {
      "type": "function",
      "name": "owner",
      "inputs": [],
      "outputs": [
        {
          "name": "",
          "type": "address",
          "internalType": "address"
        }
      ],
      "stateMutability": "view"
    },
    {
      "type": "function",
      "name": "pause",
      "inputs": [
        {
          "name": "reason",
          "type": "string",
          "internalType": "string"
        }
      ],
      "outputs": [],
      "stateMutability": "nonpayable"
    },
    {
      "type": "function",
      "name": "paused",
      "inputs": [],
      "outputs": [
        {
          "name": "",
          "type": "bool",
          "internalType": "bool"
        }
      ],
      "stateMutability": "view"
    },
    {
      "type": "function",
      "name": "renounceOwnership",
      "inputs": [],
      "outputs": [],
      "stateMutability": "nonpayable"
    },
    {
      "type": "function",
      "name": "rescueERC20",
      "inputs": [
        {
          "name": "_token",
          "type": "address",
          "internalType": "address"
        },
        {
          "name": "_recipient",
          "type": "address",
          "internalType": "address"
        },
        {
          "name": "amount",
          "type": "uint256",
          "internalType": "uint256"
        }
      ],
      "outputs": [],
      "stateMutability": "nonpayable"
    },
    {
      "type": "function",
      "name": "rescueERC721",
      "inputs": [
        {
          "name": "_token",
          "type": "address",
          "internalType": "address"
        },
        {
          "name": "_recipient",
          "type": "address",
          "internalType": "address"
        },
        {
          "name": "tokenId",
          "type": "uint256",
          "internalType": "uint256"
        }
      ],
      "outputs": [],
      "stateMutability": "nonpayable"
    },
    {
      "type": "function",
      "name": "token",
      "inputs": [],
      "outputs": [
        {
          "name": "",
          "type": "address",
          "internalType": "contract IERC20"
        }
      ],
      "stateMutability": "view"
    },
    {
      "type": "function",
      "name": "transferOwnership",
      "inputs": [
        {
          "name": "newOwner",
          "type": "address",
          "internalType": "address"
        }
      ],
      "outputs": [],
      "stateMutability": "nonpayable"
    },
    {
      "type": "function",
      "name": "unpause",
      "inputs": [
        {
          "name": "reason",
          "type": "string",
          "internalType": "string"
        }
      ],
      "outputs": [],
      "stateMutability": "nonpayable"
    },
    {
      "type": "function",
      "name": "updateMerkleRoot",
      "inputs": [
        {
          "name": "_merkleRoot",
          "type": "bytes32",
          "internalType": "bytes32"
        },
        {
          "name": "_ipfsHash",
          "type": "string",
          "internalType": "string"
        }
      ],
      "outputs": [],
      "stateMutability": "nonpayable"
    },
    {
      "type": "function",
      "name": "verifyClaim",
      "inputs": [
        {
          "name": "claimant",
          "type": "address",
          "internalType": "address"
        },
        {
          "name": "amount",
          "type": "uint256",
          "internalType": "uint256"
        },
        {
          "name": "merkleProof",
          "type": "bytes32[]",
          "internalType": "bytes32[]"
        }
      ],
      "outputs": [
        {
          "name": "",
          "type": "bool",
          "internalType": "bool"
        }
      ],
      "stateMutability": "view"
    },
    {
      "type": "function",
      "name": "withdrawUnclaimed",
      "inputs": [
        {
          "name": "amount",
          "type": "uint256",
          "internalType": "uint256"
        }
      ],
      "outputs": [],
      "stateMutability": "nonpayable"
    },
    {
      "type": "event",
      "name": "AirdropFunded",
      "inputs": [
        {
          "name": "amount",
          "type": "uint256",
          "indexed": false,
          "internalType": "uint256"
        }
      ],
      "anonymous": false
    },
    {
      "type": "event",
      "name": "BatchTokensClaimed",
      "inputs": [
        {
          "name": "claimer",
          "type": "address",
          "indexed": true,
          "internalType": "address"
        },
        {
          "name": "count",
          "type": "uint256",
          "indexed": false,
          "internalType": "uint256"
        }
      ],
      "anonymous": false
    },
    {
      "type": "event",
      "name": "ContractPaused",
      "inputs": [
        {
          "name": "paused",
          "type": "bool",
          "indexed": false,
          "internalType": "bool"
        },
        {
          "name": "reason",
          "type": "string",
          "indexed": false,
          "internalType": "string"
        }
      ],
      "anonymous": false
    },
    {
      "type": "event",
      "name": "OwnershipTransferred",
      "inputs": [
        {
          "name": "previousOwner",
          "type": "address",
          "indexed": true,
          "internalType": "address"
        },
        {
          "name": "newOwner",
          "type": "address",
          "indexed": true,
          "internalType": "address"
        }
      ],
      "anonymous": false
    },
    {
      "type": "event",
      "name": "Paused",
      "inputs": [
        {
          "name": "account",
          "type": "address",
          "indexed": false,
          "internalType": "address"
        }
      ],
      "anonymous": false
    },
    {
      "type": "event",
      "name": "TokensClaimed",
      "inputs": [
        {
          "name": "claimant",
          "type": "address",
          "indexed": true,
          "internalType": "address"
        },
        {
          "name": "amount",
          "type": "uint256",
          "indexed": false,
          "internalType": "uint256"
        }
      ],
      "anonymous": false
    },
    {
      "type": "event",
      "name": "Unpaused",
      "inputs": [
        {
          "name": "account",
          "type": "address",
          "indexed": false,
          "internalType": "address"
        }
      ],
      "anonymous": false
    },
    {
      "type": "event",
      "name": "rootUpdated",
      "inputs": [
        {
          "name": "merkleRoot",
          "type": "bytes32",
          "indexed": true,
          "internalType": "bytes32"
        }
      ],
      "anonymous": false
    },
    {
      "type": "error",
      "name": "EnforcedPause",
      "inputs": []
    },
    {
      "type": "error",
      "name": "ExpectedPause",
      "inputs": []
    },
    {
      "type": "error",
      "name": "OwnableInvalidOwner",
      "inputs": [
        {
          "name": "owner",
          "type": "address",
          "internalType": "address"
        }
      ]
    },
    {
      "type": "error",
      "name": "OwnableUnauthorizedAccount",
      "inputs": [
        {
          "name": "account",
          "type": "address",
          "internalType": "address"
        }
      ]
    }
  ],
  "bytecode": {
    "object": "0x608060405234801561001057600080fd5b5060405161133d38038061133d83398101604081905261002f916100e1565b338061005557604051631e4fbdf760e01b81526000600482015260240160405180910390fd5b61005e81610091565b506000805460ff60a01b19169055600180546001600160a01b0319166001600160a01b0392909216919091179055610111565b600080546001600160a01b038381166001600160a01b0319831681178455604051919092169283917f8be0079c531659141344cd1fd0a4f28419497f9722a3daafe3b4186f6b6457e09190a35050565b6000602082840312156100f357600080fd5b81516001600160a01b038116811461010a57600080fd5b9392505050565b61121d806101206000396000f3fe608060405234801561001057600080fd5b50600436106101215760003560e01c8063a195b69c116100ad578063e48034b511610071578063e48034b514610278578063e6634c671461028b578063e79faa581461029e578063f2fde38b146102b1578063fc0c546a146102c457600080fd5b8063a195b69c146101fe578063aa2945db1461022a578063b2118a8d1461023d578063c623674f14610250578063cfb4a1fc1461026557600080fd5b8063715018a6116100f4578063715018a61461018857806373b2e80e146101905780637df325e1146101b35780638da5cb5b146101c65780638e2decd8146101eb57600080fd5b80632eb4a7ab146101265780633f5c7646146101425780635c975abb146101575780636da6635514610175575b600080fd5b61012f60025481565b6040519081526020015b60405180910390f35b610155610150366004610d23565b6102d7565b005b600054600160a01b900460ff165b6040519015158152602001610139565b610155610183366004610e0b565b6103f6565b610155610446565b61016561019e366004610e69565b60046020526000908152604090205460ff1681565b6101556101c1366004610e84565b61045a565b6000546001600160a01b03165b6040516001600160a01b039091168152602001610139565b6101556101f9366004610ec1565b6104cf565b61016561020c366004610e69565b6001600160a01b031660009081526004602052604090205460ff1690565b610165610238366004610eda565b6105c5565b61015561024b366004610e84565b610653565b6102586106d4565b6040516101399190610f34565b610155610273366004610eda565b610762565b610155610286366004610f82565b610776565b610155610299366004610ec1565b6107c0565b6101556102ac366004610e0b565b610884565b6101556102bf366004610e69565b6108c8565b6001546101d3906001600160a01b031681565b6102df610903565b84831480156102ed57508481145b6103375760405162461bcd60e51b8152602060048201526016602482015275082e4e4c2f240d8cadccee8d0e640dad2e6dac2e8c6d60531b60448201526064015b60405180910390fd5b8460005b818110156103b7576103af88888381811061035857610358610fce565b905060200201602081019061036d9190610e69565b87878481811061037f5761037f610fce565b9050602002013586868581811061039857610398610fce565b90506020028101906103aa9190610fe4565b61092e565b60010161033b565b5060405181815233907f49f7836d82e2c4817c665a054deb06795dca76ad35055b19a2713d714040d8cd9060200160405180910390a250505050505050565b6103fe610b09565b610406610b36565b7fba92f4c0f30e5e812772be893ed1ad3fd45bb372fcb14cd54da3a7e0e37887c06001838360405161043a9392919061102e565b60405180910390a15050565b61044e610b09565b6104586000610b96565b565b610462610b09565b604051632142170760e11b81523060048201526001600160a01b038381166024830152604482018390528416906342842e0e90606401600060405180830381600087803b1580156104b257600080fd5b505af11580156104c6573d6000803e3d6000fd5b50505050505050565b6104d7610b09565b6001546040516323b872dd60e01b8152336004820152306024820152604481018390526001600160a01b03909116906323b872dd906064016020604051808303816000875af115801561052e573d6000803e3d6000fd5b505050506040513d601f19601f820116820180604052508101906105529190611066565b61058f5760405162461bcd60e51b815260206004820152600e60248201526d119d5b991a5b99c819985a5b195960921b604482015260640161032e565b6040518181527f61d1787896dfd1a6b3a32acc98452f04ce057666fd4bea2cf39bc30fc6087eaa9060200160405180910390a150565b6040516bffffffffffffffffffffffff19606086901b166020820152603481018490526000908190605401604051602081830303815290604052805190602001209050610649848480806020026020016040519081016040528093929190818152602001838360200280828437600092019190915250506002549150849050610be6565b9695505050505050565b61065b610b09565b60405163a9059cbb60e01b81526001600160a01b0383811660048301526024820183905284169063a9059cbb906044016020604051808303816000875af11580156106aa573d6000803e3d6000fd5b505050506040513d601f19601f820116820180604052508101906106ce9190611066565b50505050565b600380546106e190611088565b80601f016020809104026020016040519081016040528092919081815260200182805461070d90611088565b801561075a5780601f1061072f5761010080835404028352916020019161075a565b820191906000526020600020905b81548152906001019060200180831161073d57829003601f168201915b505050505081565b61076a610903565b6106ce8484848461092e565b61077e610b09565b60028390556003610790828483611127565b5060405183907edb3c3000e0daba66ff2cd45c4046241d3a2a7831272a1d11d57bd2ed976c2c90600090a2505050565b6107c8610b09565b60015460405163a9059cbb60e01b8152336004820152602481018390526001600160a01b039091169063a9059cbb906044016020604051808303816000875af1158015610819573d6000803e3d6000fd5b505050506040513d601f19601f8201168201806040525081019061083d9190611066565b6108815760405162461bcd60e51b8152602060048201526015602482015274151bdad95b881d1c985b9cd9995c8819985a5b1959605a1b604482015260640161032e565b50565b61088c610b09565b610894610bfc565b7fba92f4c0f30e5e812772be893ed1ad3fd45bb372fcb14cd54da3a7e0e37887c06000838360405161043a9392919061102e565b6108d0610b09565b6001600160a01b0381166108fa57604051631e4fbdf760e01b81526000600482015260240161032e565b61088181610b96565b600054600160a01b900460ff16156104585760405163d93c066560e01b815260040160405180910390fd5b6001600160a01b03841660009081526004602052604090205460ff16156109975760405162461bcd60e51b815260206004820152601760248201527f41697264726f7020616c726561647920636c61696d6564000000000000000000604482015260640161032e565b6109a3848484846105c5565b6109e65760405162461bcd60e51b815260206004820152601460248201527324b73b30b634b21036b2b935b63290383937b7b360611b604482015260640161032e565b6001600160a01b03848116600081815260046020819052604091829020805460ff1916600190811790915554915163a9059cbb60e01b815290810192909252602482018690529091169063a9059cbb906044016020604051808303816000875af1158015610a58573d6000803e3d6000fd5b505050506040513d601f19601f82011682018060405250810190610a7c9190611066565b610ac05760405162461bcd60e51b8152602060048201526015602482015274151bdad95b881d1c985b9cd9995c8819985a5b1959605a1b604482015260640161032e565b836001600160a01b03167f896e034966eaaf1adc54acc0f257056febbd300c9e47182cf761982cf1f5e43084604051610afb91815260200190565b60405180910390a250505050565b6000546001600160a01b031633146104585760405163118cdaa760e01b815233600482015260240161032e565b610b3e610903565b6000805460ff60a01b1916600160a01b1790557f62e78cea01bee320cd4e420270b5ea74000d11b0c9f74754ebdbfc544b05a258610b793390565b6040516001600160a01b03909116815260200160405180910390a1565b600080546001600160a01b038381166001600160a01b0319831681178455604051919092169283917f8be0079c531659141344cd1fd0a4f28419497f9722a3daafe3b4186f6b6457e09190a35050565b600082610bf38584610c38565b14949350505050565b610c04610c7b565b6000805460ff60a01b191690557f5db9ee0a495bf2e6ff9c91a7834c1ba4fdd244a5e8aa4e537bd38aeae4b073aa33610b79565b600081815b8451811015610c7357610c6982868381518110610c5c57610c5c610fce565b6020026020010151610ca5565b9150600101610c3d565b509392505050565b600054600160a01b900460ff1661045857604051638dfc202b60e01b815260040160405180910390fd5b6000818310610cc1576000828152602084905260409020610cd0565b60008381526020839052604090205b9392505050565b60008083601f840112610ce957600080fd5b50813567ffffffffffffffff811115610d0157600080fd5b6020830191508360208260051b8501011115610d1c57600080fd5b9250929050565b60008060008060008060608789031215610d3c57600080fd5b863567ffffffffffffffff811115610d5357600080fd5b610d5f89828a01610cd7565b909750955050602087013567ffffffffffffffff811115610d7f57600080fd5b610d8b89828a01610cd7565b909550935050604087013567ffffffffffffffff811115610dab57600080fd5b610db789828a01610cd7565b979a9699509497509295939492505050565b60008083601f840112610ddb57600080fd5b50813567ffffffffffffffff811115610df357600080fd5b602083019150836020828501011115610d1c57600080fd5b60008060208385031215610e1e57600080fd5b823567ffffffffffffffff811115610e3557600080fd5b610e4185828601610dc9565b90969095509350505050565b80356001600160a01b0381168114610e6457600080fd5b919050565b600060208284031215610e7b57600080fd5b610cd082610e4d565b600080600060608486031215610e9957600080fd5b610ea284610e4d565b9250610eb060208501610e4d565b929592945050506040919091013590565b600060208284031215610ed357600080fd5b5035919050565b60008060008060608587031215610ef057600080fd5b610ef985610e4d565b935060208501359250604085013567ffffffffffffffff811115610f1c57600080fd5b610f2887828801610cd7565b95989497509550505050565b602081526000825180602084015260005b81811015610f625760208186018101516040868401015201610f45565b506000604082850101526040601f19601f83011684010191505092915050565b600080600060408486031215610f9757600080fd5b83359250602084013567ffffffffffffffff811115610fb557600080fd5b610fc186828701610dc9565b9497909650939450505050565b634e487b7160e01b600052603260045260246000fd5b6000808335601e19843603018112610ffb57600080fd5b83018035915067ffffffffffffffff82111561101657600080fd5b6020019150600581901b3603821315610d1c57600080fd5b831515815260406020820152816040820152818360608301376000818301606090810191909152601f909201601f1916010192915050565b60006020828403121561107857600080fd5b81518015158114610cd057600080fd5b600181811c9082168061109c57607f821691505b6020821081036110bc57634e487b7160e01b600052602260045260246000fd5b50919050565b634e487b7160e01b600052604160045260246000fd5b601f82111561112257806000526020600020601f840160051c810160208510156110ff5750805b601f840160051c820191505b8181101561111f576000815560010161110b565b50505b505050565b67ffffffffffffffff83111561113f5761113f6110c2565b6111538361114d8354611088565b836110d8565b6000601f841160018114611187576000851561116f5750838201355b600019600387901b1c1916600186901b17835561111f565b600083815260209020601f19861690835b828110156111b85786850135825560209485019460019092019101611198565b50868210156111d55760001960f88860031b161c19848701351681555b505060018560011b018355505050505056fea2646970667358221220635526940513c5e6dc324c5c01dc1f06b3b4ebb1cd10da7bb1d3ee00e4dadf0464736f6c634300081a0033",
    "linkReferences": {}
  },
  "methodIdentifiers": {
    "batchClaimTokens(address[],uint256[],bytes32[][])": "3f5c7646",
    "claimTokens(address,uint256,bytes32[])": "cfb4a1fc",
    "fundAirdrop(uint256)": "8e2decd8",
    "hasClaimed(address)": "73b2e80e",
    "hasUserClaimed(address)": "a195b69c",
    "ipfsHash()": "c623674f",
    "merkleRoot()": "2eb4a7ab",
    "owner()": "8da5cb5b",
    "pause(string)": "6da66355",
    "paused()": "5c975abb",
    "renounceOwnership()": "715018a6",
    "rescueERC20(address,address,uint256)": "b2118a8d",
    "rescueERC721(address,address,uint256)": "7df325e1",
    "token()": "fc0c546a",
    "transferOwnership(address)": "f2fde38b",
    "unpause(string)": "e79faa58",
    "updateMerkleRoot(bytes32,string)": "e48034b5",
    "verifyClaim(address,uint256,bytes32[])": "aa2945db",
    "withdrawUnclaimed(uint256)": "e6634c67"
  },
  "id": 48
}